:100341003F065B4F666D7D077F6F40804020100840
:03035100040201A2
:10031F00020B0000080D00000A00000A0000011582
:10032F0000010A0001180001160001170002080061
:01033F0000BD
:10000300D3EF9400EE9400400DE4FD0DBD6EFCEFC4
:060013001F70ED1E80EAE3
:0100190022C4
:0C038200C2B47F327E00120003D2B4220D
:1002FD00E50D7014E50EB4080FE510B4030AE51111
:10030D007006751501C2B422E5156005E4F515D228
:02031D00B42208
:10035400C286E4FFC285C287D2850FBF10F6D2865B
:010364002276
:0F03650053890F438910758DFC758B66D28E22DC
:05038E00D2ABD2AF224A
:1002C6007E01C290E4FCC291EF30E704D294800232
:1002D600C294EF25E0FFD2910CBC08EAE4FCC2917F
:1002E600EE5D6004C2948002D294EE25E0FED291C7
:0602F6000CBC08EAD290E6
:0102FC0022DF
:10001E0030A00630A103751601A2A130A001B35085
:10002E0023E5166401701D0517E51794024015E4CB
:10003E00F51730A00620A10375180120A00630A1E7
:10004E0003750A0120A05320A150E518604CE4F579
:10005E0018F50AF51620A22BE50DB40112C3E50E14
:10006E00648094825004050E8007E4F50E8002052C
:10007E000EE50EB40A21E50D6401601B050DE4F5D5
:10008E000E80140511E511B40A0D0510E4F511E505
:10009E0010B40603E4F51012038220A05820A155D7
:1000AE00E50A6051E4F518F50AF51620A223E50DD0
:1000BE007004E50E603C150EC3E50E64809480500E
:1000CE0031E50D6007750E09150D8026E4F50E80DD
:1000DE0021E5107004E51160191511C3E511648056
:1000EE009480500EE510600775110915108003E419
:0600FE00F511120382223D
:0E03740012035412036512038E12001E80FB4A
:03001B00020104DB
:10010400C0E0C0F0C083C082C0D075D000C000C0C1
:0701140004C005C006C0078E
:10011B00758DFC758B66050CE50C7002050B64E8A0
:10012B007004E50B6403706A0509E50970020508A4
:10013B00750B00750C00AE08FF7C007D0A12027176
:10014B008D14AE08AF097C007D0A1202717C007D14
:10015B000A1202718D13E51364067036F513F50858
:10016B00F5090511E511640A7028F5110510E51064
:10017B00B4061F751000050EE50DB4010BE50EB4AA
:10018B000306750D00750E01E50EB40A05750E001C
:10019B00050DE519C3940750040519800375190063
:1001AB00740D2519F8E6FF3395E0FE74412FF582A7
:1001BB0074033EF583E493FFE51990034C93FD1212
:0501CB0002C61202FD56
:1001D000D007D006D005D004D000D0D0D082D083B4
:0501E000D0F0D0E03278
:030000000201E515
:0C01E500787FE4F6D8FD75811902022C29
:10027100BC000BBE0029EF8DF084FFADF022E4CC71
:10028100F875F008EF2FFFEE33FEEC33FCEE9DEC3A
:10029100984005FCEE9DFE0FD5F0E9E4CEFD22ED80
:1002A100F8F5F0EE8420D21CFEADF075F008EF2FCA
:1002B100FFED33FD4007985006D5F0F222C398FDBB
:0502C1000FD5F0EA2258
:1001F100020374E493A3F8E493A34003F68001F2AD
:1002010008DFF48029E493A3F85407240CC8C3330E
:10021100C4540F4420C8834004F456800146F6DFDD
:10022100E4800B010204081020408090031FE47E4B
:10023100019360BCA3FF543F30E509541FFEE493D2
:10024100A360010ECF54C025E060A840B8E493A399
:10025100FAE493A3F8E493A3C8C582C8CAC583CAC4
:10026100F0A3C8C582C8CAC583CADFE9DEE780BE7C
:0103400000BC
:00000001FF
